{
  "_format": "hh-sol-artifact-1",
  "contractName": "NFTMarketplace",
  "sourceName": "contracts/NFTMarketplace.sol",
  "abi": [
    {
      "inputs": [
        {
          "internalType": "address",
          "name": "_oracleAddress",
          "type": "address"
        }
      ],
      "stateMutability": "nonpayable",
      "type": "constructor"
    },
    {
      "anonymous": false,
      "inputs": [
        {
          "indexed": true,
          "internalType": "address",
          "name": "owner",
          "type": "address"
        },
        {
          "indexed": true,
          "internalType": "address",
          "name": "approved",
          "type": "address"
        },
        {
          "indexed": true,
          "internalType": "uint256",
          "name": "tokenId",
          "type": "uint256"
        }
      ],
      "name": "Approval",
      "type": "event"
    },
    {
      "anonymous": false,
      "inputs": [
        {
          "indexed": true,
          "internalType": "address",
          "name": "owner",
          "type": "address"
        },
        {
          "indexed": true,
          "internalType": "address",
          "name": "operator",
          "type": "address"
        },
        {
          "indexed": false,
          "internalType": "bool",
          "name": "approved",
          "type": "bool"
        }
      ],
      "name": "ApprovalForAll",
      "type": "event"
    },
    {
      "anonymous": false,
      "inputs": [
        {
          "indexed": false,
          "internalType": "uint256",
          "name": "_fromTokenId",
          "type": "uint256"
        },
        {
          "indexed": false,
          "internalType": "uint256",
          "name": "_toTokenId",
          "type": "uint256"
        }
      ],
      "name": "BatchMetadataUpdate",
      "type": "event"
    },
    {
      "anonymous": false,
      "inputs": [
        {
          "indexed": false,
          "internalType": "uint256",
          "name": "_tokenId",
          "type": "uint256"
        }
      ],
      "name": "MetadataUpdate",
      "type": "event"
    },
    {
      "anonymous": false,
      "inputs": [
        {
          "indexed": true,
          "internalType": "uint256",
          "name": "tokenId",
          "type": "uint256"
        },
        {
          "indexed": false,
          "internalType": "address",
          "name": "owner",
          "type": "address"
        },
        {
          "indexed": false,
          "internalType": "address",
          "name": "seller",
          "type": "address"
        },
        {
          "indexed": false,
          "internalType": "uint256",
          "name": "priceInWei",
          "type": "uint256"
        },
        {
          "indexed": false,
          "internalType": "bool",
          "name": "currentlyListed",
          "type": "bool"
        }
      ],
      "name": "TokenListedSuccess",
      "type": "event"
    },
    {
      "anonymous": false,
      "inputs": [
        {
          "indexed": true,
          "internalType": "address",
          "name": "from",
          "type": "address"
        },
        {
          "indexed": true,
          "internalType": "address",
          "name": "to",
          "type": "address"
        },
        {
          "indexed": true,
          "internalType": "uint256",
          "name": "tokenId",
          "type": "uint256"
        }
      ],
      "name": "Transfer",
      "type": "event"
    },
    {
      "inputs": [],
      "name": "DECIMALS",
      "outputs": [
        {
          "internalType": "uint256",
          "name": "",
          "type": "uint256"
        }
      ],
      "stateMutability": "view",
      "type": "function"
    },
    {
      "inputs": [
        {
          "internalType": "address",
          "name": "to",
          "type": "address"
        },
        {
          "internalType": "uint256",
          "name": "tokenId",
          "type": "uint256"
        }
      ],
      "name": "approve",
      "outputs": [],
      "stateMutability": "nonpayable",
      "type": "function"
    },
    {
      "inputs": [
        {
          "internalType": "address",
          "name": "owner",
          "type": "address"
        }
      ],
      "name": "balanceOf",
      "outputs": [
        {
          "internalType": "uint256",
          "name": "",
          "type": "uint256"
        }
      ],
      "stateMutability": "view",
      "type": "function"
    },
    {
      "inputs": [
        {
          "internalType": "uint256",
          "name": "price",
          "type": "uint256"
        }
      ],
      "name": "calculatePlatformFee",
      "outputs": [
        {
          "internalType": "uint256",
          "name": "",
          "type": "uint256"
        }
      ],
      "stateMutability": "pure",
      "type": "function"
    },
    {
      "inputs": [
        {
          "internalType": "string",
          "name": "tokenURI",
          "type": "string"
        },
        {
          "internalType": "uint256",
          "name": "priceInUsd",
          "type": "uint256"
        }
      ],
      "name": "createToken",
      "outputs": [
        {
          "internalType": "uint256",
          "name": "",
          "type": "uint256"
        }
      ],
      "stateMutability": "nonpayable",
      "type": "function"
    },
    {
      "inputs": [
        {
          "internalType": "uint256",
          "name": "tokenId",
          "type": "uint256"
        }
      ],
      "name": "executeSale",
      "outputs": [],
      "stateMutability": "payable",
      "type": "function"
    },
    {
      "inputs": [],
      "name": "getAllNFTs",
      "outputs": [
        {
          "components": [
            {
              "internalType": "uint256",
              "name": "tokenId",
              "type": "uint256"
            },
            {
              "internalType": "address payable",
              "name": "owner",
              "type": "address"
            },
            {
              "internalType": "address payable",
              "name": "seller",
              "type": "address"
            },
            {
              "internalType": "uint256",
              "name": "priceInWei",
              "type": "uint256"
            },
            {
              "internalType": "bool",
              "name": "currentlyListed",
              "type": "bool"
            }
          ],
          "internalType": "struct NFTMarketplace.ListedToken[]",
          "name": "",
          "type": "tuple[]"
        }
      ],
      "stateMutability": "view",
      "type": "function"
    },
    {
      "inputs": [
        {
          "internalType": "uint256",
          "name": "tokenId",
          "type": "uint256"
        }
      ],
      "name": "getApproved",
      "outputs": [
        {
          "internalType": "address",
          "name": "",
          "type": "address"
        }
      ],
      "stateMutability": "view",
      "type": "function"
    },
    {
      "inputs": [],
      "name": "getCurrentToken",
      "outputs": [
        {
          "internalType": "uint256",
          "name": "",
          "type": "uint256"
        }
      ],
      "stateMutability": "view",
      "type": "function"
    },
    {
      "inputs": [],
      "name": "getLatestEthPrice",
      "outputs": [
        {
          "internalType": "uint256",
          "name": "",
          "type": "uint256"
        }
      ],
      "stateMutability": "view",
      "type": "function"
    },
    {
      "inputs": [],
      "name": "getLatestIdToListedToken",
      "outputs": [
        {
          "components": [
            {
              "internalType": "uint256",
              "name": "tokenId",
              "type": "uint256"
            },
            {
              "internalType": "address payable",
              "name": "owner",
              "type": "address"
            },
            {
              "internalType": "address payable",
              "name": "seller",
              "type": "address"
            },
            {
              "internalType": "uint256",
              "name": "priceInWei",
              "type": "uint256"
            },
            {
              "internalType": "bool",
              "name": "currentlyListed",
              "type": "bool"
            }
          ],
          "internalType": "struct NFTMarketplace.ListedToken",
          "name": "",
          "type": "tuple"
        }
      ],
      "stateMutability": "view",
      "type": "function"
    },
    {
      "inputs": [
        {
          "internalType": "uint256",
          "name": "tokenId",
          "type": "uint256"
        }
      ],
      "name": "getListedTokenForId",
      "outputs": [
        {
          "components": [
            {
              "internalType": "uint256",
              "name": "tokenId",
              "type": "uint256"
            },
            {
              "internalType": "address payable",
              "name": "owner",
              "type": "address"
            },
            {
              "internalType": "address payable",
              "name": "seller",
              "type": "address"
            },
            {
              "internalType": "uint256",
              "name": "priceInWei",
              "type": "uint256"
            },
            {
              "internalType": "bool",
              "name": "currentlyListed",
              "type": "bool"
            }
          ],
          "internalType": "struct NFTMarketplace.ListedToken",
          "name": "",
          "type": "tuple"
        }
      ],
      "stateMutability": "view",
      "type": "function"
    },
    {
      "inputs": [],
      "name": "getMyNFTs",
      "outputs": [
        {
          "components": [
            {
              "internalType": "uint256",
              "name": "tokenId",
              "type": "uint256"
            },
            {
              "internalType": "address payable",
              "name": "owner",
              "type": "address"
            },
            {
              "internalType": "address payable",
              "name": "seller",
              "type": "address"
            },
            {
              "internalType": "uint256",
              "name": "priceInWei",
              "type": "uint256"
            },
            {
              "internalType": "bool",
              "name": "currentlyListed",
              "type": "bool"
            }
          ],
          "internalType": "struct NFTMarketplace.ListedToken[]",
          "name": "",
          "type": "tuple[]"
        }
      ],
      "stateMutability": "view",
      "type": "function"
    },
    {
      "inputs": [
        {
          "internalType": "address",
          "name": "owner",
          "type": "address"
        },
        {
          "internalType": "address",
          "name": "operator",
          "type": "address"
        }
      ],
      "name": "isApprovedForAll",
      "outputs": [
        {
          "internalType": "bool",
          "name": "",
          "type": "bool"
        }
      ],
      "stateMutability": "view",
      "type": "function"
    },
    {
      "inputs": [],
      "name": "name",
      "outputs": [
        {
          "internalType": "string",
          "name": "",
          "type": "string"
        }
      ],
      "stateMutability": "view",
      "type": "function"
    },
    {
      "inputs": [],
      "name": "oracleAddress",
      "outputs": [
        {
          "internalType": "address",
          "name": "",
          "type": "address"
        }
      ],
      "stateMutability": "view",
      "type": "function"
    },
    {
      "inputs": [
        {
          "internalType": "uint256",
          "name": "tokenId",
          "type": "uint256"
        }
      ],
      "name": "ownerOf",
      "outputs": [
        {
          "internalType": "address",
          "name": "",
          "type": "address"
        }
      ],
      "stateMutability": "view",
      "type": "function"
    },
    {
      "inputs": [
        {
          "internalType": "address",
          "name": "from",
          "type": "address"
        },
        {
          "internalType": "address",
          "name": "to",
          "type": "address"
        },
        {
          "internalType": "uint256",
          "name": "tokenId",
          "type": "uint256"
        }
      ],
      "name": "safeTransferFrom",
      "outputs": [],
      "stateMutability": "nonpayable",
      "type": "function"
    },
    {
      "inputs": [
        {
          "internalType": "address",
          "name": "from",
          "type": "address"
        },
        {
          "internalType": "address",
          "name": "to",
          "type": "address"
        },
        {
          "internalType": "uint256",
          "name": "tokenId",
          "type": "uint256"
        },
        {
          "internalType": "bytes",
          "name": "data",
          "type": "bytes"
        }
      ],
      "name": "safeTransferFrom",
      "outputs": [],
      "stateMutability": "nonpayable",
      "type": "function"
    },
    {
      "inputs": [
        {
          "internalType": "address",
          "name": "operator",
          "type": "address"
        },
        {
          "internalType": "bool",
          "name": "approved",
          "type": "bool"
        }
      ],
      "name": "setApprovalForAll",
      "outputs": [],
      "stateMutability": "nonpayable",
      "type": "function"
    },
    {
      "inputs": [
        {
          "internalType": "bytes4",
          "name": "interfaceId",
          "type": "bytes4"
        }
      ],
      "name": "supportsInterface",
      "outputs": [
        {
          "internalType": "bool",
          "name": "",
          "type": "bool"
        }
      ],
      "stateMutability": "view",
      "type": "function"
    },
    {
      "inputs": [],
      "name": "symbol",
      "outputs": [
        {
          "internalType": "string",
          "name": "",
          "type": "string"
        }
      ],
      "stateMutability": "view",
      "type": "function"
    },
    {
      "inputs": [
        {
          "internalType": "uint256",
          "name": "tokenId",
          "type": "uint256"
        }
      ],
      "name": "tokenURI",
      "outputs": [
        {
          "internalType": "string",
          "name": "",
          "type": "string"
        }
      ],
      "stateMutability": "view",
      "type": "function"
    },
    {
      "inputs": [
        {
          "internalType": "address",
          "name": "from",
          "type": "address"
        },
        {
          "internalType": "address",
          "name": "to",
          "type": "address"
        },
        {
          "internalType": "uint256",
          "name": "tokenId",
          "type": "uint256"
        }
      ],
      "name": "transferFrom",
      "outputs": [],
      "stateMutability": "nonpayable",
      "type": "function"
    }
  ],
  "bytecode": "0x60806040523480156200001157600080fd5b50604051620025aa380380620025aa833981016040819052620000349162000174565b604080518082018252600e81526d4e46544d61726b6574706c61636560901b6020808301918252835180850190945260048452634e46544d60e01b9084015281519192916200008691600091620000ce565b5080516200009c906001906020840190620000ce565b5050600a80546001600160a01b039093166001600160a01b0319938416179055506009805490911633179055620001e1565b828054620000dc90620001a4565b90600052602060002090601f0160209004810192826200010057600085556200014b565b82601f106200011b57805160ff19168380011785556200014b565b828001600101855582156200014b579182015b828111156200014b5782518255916020019190600101906200012e565b50620001599291506200015d565b5090565b5b808211156200015957600081556001016200015e565b60006020828403121562000186578081fd5b81516001600160a01b03811681146200019d578182fd5b9392505050565b600181811c90821680620001b957607f821691505b60208210811415620001db57634e487b7160e01b600052602260045260246000fd5b50919050565b6123b980620001f16000396000f3fe60806040526004361061014b5760003560e01c806372b3b620116100b6578063b88d4fde1161006f578063b88d4fde146103b0578063c87b56dd146103d0578063d1a88ae5146103f0578063e0391b0914610405578063e985e9c51461041a578063ef2d17461461046357600080fd5b806372b3b620146102fb5780638e2645901461031b57806395d89b41146103485780639b1225c41461035d578063a22cb46514610370578063a89ae4ba1461039057600080fd5b80632e0f2625116101085780632e0f26251461024f57806330c0b9ec1461026457806342842e0e14610279578063629cb2e4146102995780636352211e146102bb57806370a08231146102db57600080fd5b806301ffc9a71461015057806306fdde0314610185578063081812fc146101a7578063095ea7b3146101df5780630cbab4f71461020157806323b872dd1461022f575b600080fd5b34801561015c57600080fd5b5061017061016b366004611e5d565b610478565b60405190151581526020015b60405180910390f35b34801561019157600080fd5b5061019a6104a3565b60405161017c9190612078565b3480156101b357600080fd5b506101c76101c2366004611eeb565b610535565b6040516001600160a01b03909116815260200161017c565b3480156101eb57600080fd5b506101ff6101fa366004611e34565b61055c565b005b34801561020d57600080fd5b5061022161021c366004611eeb565b610677565b60405190815260200161017c565b34801561023b57600080fd5b506101ff61024a366004611d46565b610690565b34801561025b57600080fd5b50610221601281565b34801561027057600080fd5b506102216106c1565b34801561028557600080fd5b506101ff610294366004611d46565b6107a2565b3480156102a557600080fd5b506102ae6107bd565b60405161017c919061202a565b3480156102c757600080fd5b506101c76102d6366004611eeb565b610a02565b3480156102e757600080fd5b506102216102f6366004611cfa565b610a62565b34801561030757600080fd5b50610221610316366004611e95565b610ae8565b34801561032757600080fd5b5061033b610336366004611eeb565b610b5e565b60405161017c919061216f565b34801561035457600080fd5b5061019a610bc8565b6101ff61036b366004611eeb565b610bd7565b34801561037c57600080fd5b506101ff61038b366004611dfa565b610d6a565b34801561039c57600080fd5b50600a546101c7906001600160a01b031681565b3480156103bc57600080fd5b506101ff6103cb366004611d81565b610d79565b3480156103dc57600080fd5b5061019a6103eb366004611eeb565b610db1565b3480156103fc57600080fd5b5061033b610ec2565b34801561041157600080fd5b506102ae610f39565b34801561042657600080fd5b50610170610435366004611d14565b6001600160a01b03918216600090815260056020908152604080832093909416825291909152205460ff1690565b34801561046f57600080fd5b50610221611080565b60006001600160e01b03198216632483248360e11b148061049d575061049d82611090565b92915050565b6060600080546104b2906122eb565b80601f01602080910402602001604051908101604052809291908181526020018280546104de906122eb565b801561052b5780601f106105005761010080835404028352916020019161052b565b820191906000526020600020905b81548152906001019060200180831161050e57829003601f168201915b5050505050905090565b6000610540826110e0565b506000908152600460205260409020546001600160a01b031690565b600061056782610a02565b9050806001600160a01b0316836001600160a01b031614156105da5760405162461bcd60e51b815260206004820152602160248201527f4552433732313a20617070726f76616c20746f2063757272656e74206f776e656044820152603960f91b60648201526084015b60405180910390fd5b336001600160a01b03821614806105f657506105f68133610435565b6106685760405162461bcd60e51b815260206004820152603d60248201527f4552433732313a20617070726f76652063616c6c6572206973206e6f7420746f60448201527f6b656e206f776e6572206f7220617070726f76656420666f7220616c6c00000060648201526084016105d1565b6106728383611142565b505050565b6000606461068683600a6122a0565b61049d9190612195565b61069a33826111b0565b6106b65760405162461bcd60e51b81526004016105d19061208b565b61067283838361122e565b600a5460408051633fabe5a360e21b815290516000926001600160a01b0316918391839163feaf968c9160048083019260a0929190829003018186803b15801561070a57600080fd5b505afa15801561071e573d6000803e3d6000fd5b505050506040513d601f19601f820116820180604052508101906107429190611f03565b5050509150506000811361049d5760405162461bcd60e51b815260206004820152602160248201527f496e76616c696420436861696e6c696e6b2070726963652066656564206461746044820152606160f81b60648201526084016105d1565b61067283838360405180602001604052806000815250610d79565b606060006107ca60075490565b905060008060005b838110156108625733600b60006107ea84600161217d565b81526020810191909152604001600020600101546001600160a01b0316148061083d575033600b600061081e84600161217d565b81526020810191909152604001600020600201546001600160a01b0316145b156108505761084d60018461217d565b92505b8061085a81612326565b9150506107d2565b5060008267ffffffffffffffff81111561088c57634e487b7160e01b600052604160045260246000fd5b6040519080825280602002602001820160405280156108c557816020015b6108b2611b87565b8152602001906001900390816108aa5790505b50905060005b848110156109f95733600b60006108e384600161217d565b81526020810191909152604001600020600101546001600160a01b03161480610936575033600b600061091784600161217d565b81526020810191909152604001600020600201546001600160a01b0316145b156109e757600061094882600161217d565b6000818152600b6020908152604091829020825160a0810184528154815260018201546001600160a01b039081169382019390935260028201549092169282019290925260038201546060820152600482015460ff1615156080820152855192935090918590879081106109cc57634e487b7160e01b600052603260045260246000fd5b60209081029190910101526109e260018661217d565b945050505b806109f181612326565b9150506108cb565b50949350505050565b6000818152600260205260408120546001600160a01b03168061049d5760405162461bcd60e51b8152602060048201526018602482015277115490cdcc8c4e881a5b9d985b1a59081d1bdad95b88125160421b60448201526064016105d1565b60006001600160a01b038216610acc5760405162461bcd60e51b815260206004820152602960248201527f4552433732313a2061646472657373207a65726f206973206e6f7420612076616044820152683634b21037bbb732b960b91b60648201526084016105d1565b506001600160a01b031660009081526003602052604090205490565b6000610af8600780546001019055565b6000610b0360075490565b9050610b0f3382611392565b610b1981856113ac565b6000610b236106c1565b9050600081610b346012600a6121f8565b610b3e90876122a0565b610b489190612195565b9050610b54838261147e565b5090949350505050565b610b66611b87565b506000908152600b6020908152604091829020825160a0810184528154815260018201546001600160a01b03908116938201939093526002820154909216928201929092526003820154606082015260049091015460ff161515608082015290565b6060600180546104b2906122eb565b6000818152600b60205260408120600381015460029091015490916001600160a01b0390911690610c0783610677565b9050610c13818461217d565b3414610ca25760405162461bcd60e51b815260206004820152605260248201527f506c65617365207375626d6974207468652061736b696e67207072696365207060448201527f6c757320706c6174666f726d2066656520696e206f7264657220746f20636f6d606482015271706c6574652074686520707572636861736560701b608482015260a4016105d1565b6000848152600b6020526040902060048101805460ff1916905560020180546001600160a01b03191633179055610cdd600880546001019055565b610ce830338661122e565b610cf2308561055c565b6009546040516001600160a01b039091169082156108fc029083906000818181858888f19350505050158015610d2c573d6000803e3d6000fd5b506040516001600160a01b0383169084156108fc029085906000818181858888f19350505050158015610d63573d6000803e3d6000fd5b5050505050565b610d753383836115c3565b5050565b610d8333836111b0565b610d9f5760405162461bcd60e51b81526004016105d19061208b565b610dab84848484611692565b50505050565b6060610dbc826110e0565b60008281526006602052604081208054610dd5906122eb565b80601f0160208091040260200160405190810160405280929190818152602001828054610e01906122eb565b8015610e4e5780601f10610e2357610100808354040283529160200191610e4e565b820191906000526020600020905b815481529060010190602001808311610e3157829003601f168201915b505050505090506000610e6c60408051602081019091526000815290565b9050805160001415610e7f575092915050565b815115610eb1578082604051602001610e99929190611fbe565b60405160208183030381529060405292505050919050565b610eba846116c5565b949350505050565b610eca611b87565b6000610ed560075490565b6000908152600b6020908152604091829020825160a0810184528154815260018201546001600160a01b03908116938201939093526002820154909216928201929092526003820154606082015260049091015460ff161515608082015292915050565b60606000610f4660075490565b905060008167ffffffffffffffff811115610f7157634e487b7160e01b600052604160045260246000fd5b604051908082528060200260200182016040528015610faa57816020015b610f97611b87565b815260200190600190039081610f8f5790505b5090506000805b83811015611077576000610fc682600161217d565b6000818152600b6020908152604091829020825160a0810184528154815260018201546001600160a01b039081169382019390935260028201549092169282019290925260038201546060820152600482015460ff16151560808201528651929350909186908690811061104a57634e487b7160e01b600052603260045260246000fd5b602090810291909101015261106060018561217d565b93505050808061106f90612326565b915050610fb1565b50909392505050565b600061108b60075490565b905090565b60006001600160e01b031982166380ac58cd60e01b14806110c157506001600160e01b03198216635b5e139f60e01b145b8061049d57506301ffc9a760e01b6001600160e01b031983161461049d565b6000818152600260205260409020546001600160a01b031661113f5760405162461bcd60e51b8152602060048201526018602482015277115490cdcc8c4e881a5b9d985b1a59081d1bdad95b88125160421b60448201526064016105d1565b50565b600081815260046020526040902080546001600160a01b0319166001600160a01b038416908117909155819061117782610a02565b6001600160a01b03167f8c5be1e5ebec7d5bd14f71427d1e84f3dd0314c0f7b2291e5b200ac8c7c3b92560405160405180910390a45050565b6000806111bc83610a02565b9050806001600160a01b0316846001600160a01b0316148061120357506001600160a01b0380821660009081526005602090815260408083209388168352929052205460ff165b80610eba5750836001600160a01b031661121c84610535565b6001600160a01b031614949350505050565b826001600160a01b031661124182610a02565b6001600160a01b0316146112675760405162461bcd60e51b81526004016105d19061212a565b6001600160a01b0382166112c95760405162461bcd60e51b8152602060048201526024808201527f4552433732313a207472616e7366657220746f20746865207a65726f206164646044820152637265737360e01b60648201526084016105d1565b826001600160a01b03166112dc82610a02565b6001600160a01b0316146113025760405162461bcd60e51b81526004016105d19061212a565b600081815260046020908152604080832080546001600160a01b03199081169091556001600160a01b0387811680865260038552838620805460001901905590871680865283862080546001019055868652600290945282852080549092168417909155905184937fddf252ad1be2c89b69c2b068fc378daa952ba7f163c4a11628f55a4df523b3ef91a4505050565b610d75828260405180602001604052806000815250611739565b6000828152600260205260409020546001600160a01b03166114275760405162461bcd60e51b815260206004820152602e60248201527f45524337323155524953746f726167653a2055524920736574206f66206e6f6e60448201526d32bc34b9ba32b73a103a37b5b2b760911b60648201526084016105d1565b6000828152600660209081526040909120825161144692840190611bb5565b506040518281527ff8e1a15aba9398e019f0b49df1a4fde98ee17ae345cb5f6b5e2c27f5033e8ce79060200160405180910390a15050565b600081116114d95760405162461bcd60e51b815260206004820152602260248201527f4d616b652073757265207468652070726963652069736e2774206e6567617469604482015261766560f01b60648201526084016105d1565b6040805160a081018252838152306020808301828152338486018181526060860188815260016080880181815260008c8152600b9097529890952096518755925193860180546001600160a01b039586166001600160a01b03199182161790915590516002870180549190951691161790925551600384015592516004909201805492151560ff199093169290921790915561157691908461122e565b604080513081523360208201529081018290526001606082015282907f9339409317fd01fabff48b703019016f49159bacc801ae872d2ca637d226e4c09060800160405180910390a25050565b816001600160a01b0316836001600160a01b031614156116255760405162461bcd60e51b815260206004820152601960248201527f4552433732313a20617070726f766520746f2063616c6c65720000000000000060448201526064016105d1565b6001600160a01b03838116600081815260056020908152604080832094871680845294825291829020805460ff191686151590811790915591519182527f17307eab39ab6107e8899845ad3d59bd9653f200f220920489ca2b5937696c31910160405180910390a3505050565b61169d84848461122e565b6116a98484848461176c565b610dab5760405162461bcd60e51b81526004016105d1906120d8565b60606116d0826110e0565b60006116e760408051602081019091526000815290565b905060008151116117075760405180602001604052806000815250611732565b8061171184611879565b604051602001611722929190611fbe565b6040516020818303038152906040525b9392505050565b6117438383611924565b611750600084848461176c565b6106725760405162461bcd60e51b81526004016105d1906120d8565b60006001600160a01b0384163b1561186e57604051630a85bd0160e11b81526001600160a01b0385169063150b7a02906117b0903390899088908890600401611fed565b602060405180830381600087803b1580156117ca57600080fd5b505af19250505080156117fa575060408051601f3d908101601f191682019092526117f791810190611e79565b60015b611854573d808015611828576040519150601f19603f3d011682016040523d82523d6000602084013e61182d565b606091505b50805161184c5760405162461bcd60e51b81526004016105d1906120d8565b805181602001fd5b6001600160e01b031916630a85bd0160e11b149050610eba565b506001949350505050565b6060600061188683611aaf565b600101905060008167ffffffffffffffff8111156118b457634e487b7160e01b600052604160045260246000fd5b6040519080825280601f01601f1916602001820160405280156118de576020820181803683370190505b5090508181016020015b600019016f181899199a1a9b1b9c1cb0b131b232b360811b600a86061a8153600a85049450846119175761191c565b6118e8565b509392505050565b6001600160a01b03821661197a5760405162461bcd60e51b815260206004820181905260248201527f4552433732313a206d696e7420746f20746865207a65726f206164647265737360448201526064016105d1565b6000818152600260205260409020546001600160a01b0316156119df5760405162461bcd60e51b815260206004820152601c60248201527f4552433732313a20746f6b656e20616c7265616479206d696e7465640000000060448201526064016105d1565b6000818152600260205260409020546001600160a01b031615611a445760405162461bcd60e51b815260206004820152601c60248201527f4552433732313a20746f6b656e20616c7265616479206d696e7465640000000060448201526064016105d1565b6001600160a01b038216600081815260036020908152604080832080546001019055848352600290915280822080546001600160a01b0319168417905551839291907fddf252ad1be2c89b69c2b068fc378daa952ba7f163c4a11628f55a4df523b3ef908290a45050565b60008072184f03e93ff9f4daa797ed6e38ed64bf6a1f0160401b8310611aee5772184f03e93ff9f4daa797ed6e38ed64bf6a1f0160401b830492506040015b6d04ee2d6d415b85acef81000000008310611b1a576d04ee2d6d415b85acef8100000000830492506020015b662386f26fc100008310611b3857662386f26fc10000830492506010015b6305f5e1008310611b50576305f5e100830492506008015b6127108310611b6457612710830492506004015b60648310611b76576064830492506002015b600a831061049d5760010192915050565b6040805160a08101825260008082526020820181905291810182905260608101829052608081019190915290565b828054611bc1906122eb565b90600052602060002090601f016020900481019282611be35760008555611c29565b82601f10611bfc57805160ff1916838001178555611c29565b82800160010185558215611c29579182015b82811115611c29578251825591602001919060010190611c0e565b50611c35929150611c39565b5090565b5b80821115611c355760008155600101611c3a565b600067ffffffffffffffff80841115611c6957611c69612357565b604051601f8501601f19908116603f01168101908282118183101715611c9157611c91612357565b81604052809350858152868686011115611caa57600080fd5b858560208301376000602087830101525050509392505050565b80356001600160a01b0381168114611cdb57600080fd5b919050565b805169ffffffffffffffffffff81168114611cdb57600080fd5b600060208284031215611d0b578081fd5b61173282611cc4565b60008060408385031215611d26578081fd5b611d2f83611cc4565b9150611d3d60208401611cc4565b90509250929050565b600080600060608486031215611d5a578081fd5b611d6384611cc4565b9250611d7160208501611cc4565b9150604084013590509250925092565b60008060008060808587031215611d96578081fd5b611d9f85611cc4565b9350611dad60208601611cc4565b925060408501359150606085013567ffffffffffffffff811115611dcf578182fd5b8501601f81018713611ddf578182fd5b611dee87823560208401611c4e565b91505092959194509250565b60008060408385031215611e0c578182fd5b611e1583611cc4565b915060208301358015158114611e29578182fd5b809150509250929050565b60008060408385031215611e46578182fd5b611e4f83611cc4565b946020939093013593505050565b600060208284031215611e6e578081fd5b81356117328161236d565b600060208284031215611e8a578081fd5b81516117328161236d565b60008060408385031215611ea7578182fd5b823567ffffffffffffffff811115611ebd578283fd5b8301601f81018513611ecd578283fd5b611edc85823560208401611c4e565b95602094909401359450505050565b600060208284031215611efc578081fd5b5035919050565b600080600080600060a08688031215611f1a578081fd5b611f2386611ce0565b9450602086015193506040860151925060608601519150611f4660808701611ce0565b90509295509295909350565b60008151808452611f6a8160208601602086016122bf565b601f01601f19169290920160200192915050565b805182526020808201516001600160a01b039081169184019190915260408083015190911690830152606080820151908301526080908101511515910152565b60008351611fd08184602088016122bf565b835190830190611fe48183602088016122bf565b01949350505050565b6001600160a01b038581168252841660208201526040810183905260806060820181905260009061202090830184611f52565b9695505050505050565b6020808252825182820181905260009190848201906040850190845b8181101561206c57612059838551611f7e565b9284019260a09290920191600101612046565b50909695505050505050565b6020815260006117326020830184611f52565b6020808252602d908201527f4552433732313a2063616c6c6572206973206e6f7420746f6b656e206f776e6560408201526c1c881bdc88185c1c1c9bdd9959609a1b606082015260800190565b60208082526032908201527f4552433732313a207472616e7366657220746f206e6f6e20455243373231526560408201527131b2b4bb32b91034b6b83632b6b2b73a32b960711b606082015260800190565b60208082526025908201527f4552433732313a207472616e736665722066726f6d20696e636f72726563742060408201526437bbb732b960d91b606082015260800190565b60a0810161049d8284611f7e565b6000821982111561219057612190612341565b500190565b6000826121b057634e487b7160e01b81526012600452602481fd5b500490565b600181815b808511156121f05781600019048211156121d6576121d6612341565b808516156121e357918102915b93841c93908002906121ba565b509250929050565b6000611732838360008261220e5750600161049d565b8161221b5750600061049d565b8160018114612231576002811461223b57612257565b600191505061049d565b60ff84111561224c5761224c612341565b50506001821b61049d565b5060208310610133831016604e8410600b841016171561227a575081810a61049d565b61228483836121b5565b806000190482111561229857612298612341565b029392505050565b60008160001904831182151516156122ba576122ba612341565b500290565b60005b838110156122da5781810151838201526020016122c2565b83811115610dab5750506000910152565b600181811c908216806122ff57607f821691505b6020821081141561232057634e487b7160e01b600052602260045260246000fd5b50919050565b600060001982141561233a5761233a612341565b5060010190565b634e487b7160e01b600052601160045260246000fd5b634e487b7160e01b600052604160045260246000fd5b6001600160e01b03198116811461113f57600080fdfea2646970667358221220feb1be9eec027b245dbb63affd7943ebe07ac1a859ae7f209e0e235d42eea08c64736f6c63430008040033",
  "linkReferences": {},
  "deployedLinkReferences": {}
}