{
    "_format": "hh-sol-artifact-1",
    "contractName": "NFTMarketplace",
    "sourceName": "contracts/NFTMarketplace.sol",
    "address": "0xa18c735F57997E17FC5BA0c6f62644cc96A8ce6B",
    "abi": [
        {
            "inputs": [
                {
                    "internalType": "address",
                    "name": "_oracleAddress",
                    "type": "address"
                }
            ],
            "stateMutability": "nonpayable",
            "type": "constructor"
        },
        {
            "inputs": [
                {
                    "internalType": "address",
                    "name": "sender",
                    "type": "address"
                },
                {
                    "internalType": "uint256",
                    "name": "tokenId",
                    "type": "uint256"
                },
                {
                    "internalType": "address",
                    "name": "owner",
                    "type": "address"
                }
            ],
            "name": "ERC721IncorrectOwner",
            "type": "error"
        },
        {
            "inputs": [
                {
                    "internalType": "address",
                    "name": "operator",
                    "type": "address"
                },
                {
                    "internalType": "uint256",
                    "name": "tokenId",
                    "type": "uint256"
                }
            ],
            "name": "ERC721InsufficientApproval",
            "type": "error"
        },
        {
            "inputs": [
                {
                    "internalType": "address",
                    "name": "approver",
                    "type": "address"
                }
            ],
            "name": "ERC721InvalidApprover",
            "type": "error"
        },
        {
            "inputs": [
                {
                    "internalType": "address",
                    "name": "operator",
                    "type": "address"
                }
            ],
            "name": "ERC721InvalidOperator",
            "type": "error"
        },
        {
            "inputs": [
                {
                    "internalType": "address",
                    "name": "owner",
                    "type": "address"
                }
            ],
            "name": "ERC721InvalidOwner",
            "type": "error"
        },
        {
            "inputs": [
                {
                    "internalType": "address",
                    "name": "receiver",
                    "type": "address"
                }
            ],
            "name": "ERC721InvalidReceiver",
            "type": "error"
        },
        {
            "inputs": [
                {
                    "internalType": "address",
                    "name": "sender",
                    "type": "address"
                }
            ],
            "name": "ERC721InvalidSender",
            "type": "error"
        },
        {
            "inputs": [
                {
                    "internalType": "uint256",
                    "name": "tokenId",
                    "type": "uint256"
                }
            ],
            "name": "ERC721NonexistentToken",
            "type": "error"
        },
        {
            "anonymous": false,
            "inputs": [
                {
                    "indexed": true,
                    "internalType": "address",
                    "name": "owner",
                    "type": "address"
                },
                {
                    "indexed": true,
                    "internalType": "address",
                    "name": "approved",
                    "type": "address"
                },
                {
                    "indexed": true,
                    "internalType": "uint256",
                    "name": "tokenId",
                    "type": "uint256"
                }
            ],
            "name": "Approval",
            "type": "event"
        },
        {
            "anonymous": false,
            "inputs": [
                {
                    "indexed": true,
                    "internalType": "address",
                    "name": "owner",
                    "type": "address"
                },
                {
                    "indexed": true,
                    "internalType": "address",
                    "name": "operator",
                    "type": "address"
                },
                {
                    "indexed": false,
                    "internalType": "bool",
                    "name": "approved",
                    "type": "bool"
                }
            ],
            "name": "ApprovalForAll",
            "type": "event"
        },
        {
            "anonymous": false,
            "inputs": [
                {
                    "indexed": false,
                    "internalType": "uint256",
                    "name": "_fromTokenId",
                    "type": "uint256"
                },
                {
                    "indexed": false,
                    "internalType": "uint256",
                    "name": "_toTokenId",
                    "type": "uint256"
                }
            ],
            "name": "BatchMetadataUpdate",
            "type": "event"
        },
        {
            "anonymous": false,
            "inputs": [
                {
                    "indexed": false,
                    "internalType": "uint256",
                    "name": "_tokenId",
                    "type": "uint256"
                }
            ],
            "name": "MetadataUpdate",
            "type": "event"
        },
        {
            "anonymous": false,
            "inputs": [
                {
                    "indexed": true,
                    "internalType": "uint256",
                    "name": "tokenId",
                    "type": "uint256"
                },
                {
                    "indexed": false,
                    "internalType": "address",
                    "name": "owner",
                    "type": "address"
                },
                {
                    "indexed": false,
                    "internalType": "address",
                    "name": "seller",
                    "type": "address"
                },
                {
                    "indexed": false,
                    "internalType": "uint256",
                    "name": "priceInWei",
                    "type": "uint256"
                },
                {
                    "indexed": false,
                    "internalType": "bool",
                    "name": "currentlyListed",
                    "type": "bool"
                }
            ],
            "name": "TokenListedSuccess",
            "type": "event"
        },
        {
            "anonymous": false,
            "inputs": [
                {
                    "indexed": true,
                    "internalType": "address",
                    "name": "from",
                    "type": "address"
                },
                {
                    "indexed": true,
                    "internalType": "address",
                    "name": "to",
                    "type": "address"
                },
                {
                    "indexed": true,
                    "internalType": "uint256",
                    "name": "tokenId",
                    "type": "uint256"
                }
            ],
            "name": "Transfer",
            "type": "event"
        },
        {
            "inputs": [],
            "name": "CONSTANT",
            "outputs": [
                {
                    "internalType": "uint256",
                    "name": "",
                    "type": "uint256"
                }
            ],
            "stateMutability": "view",
            "type": "function"
        },
        {
            "inputs": [],
            "name": "DECIMALS",
            "outputs": [
                {
                    "internalType": "uint256",
                    "name": "",
                    "type": "uint256"
                }
            ],
            "stateMutability": "view",
            "type": "function"
        },
        {
            "inputs": [
                {
                    "internalType": "address",
                    "name": "to",
                    "type": "address"
                },
                {
                    "internalType": "uint256",
                    "name": "tokenId",
                    "type": "uint256"
                }
            ],
            "name": "approve",
            "outputs": [],
            "stateMutability": "nonpayable",
            "type": "function"
        },
        {
            "inputs": [
                {
                    "internalType": "address",
                    "name": "owner",
                    "type": "address"
                }
            ],
            "name": "balanceOf",
            "outputs": [
                {
                    "internalType": "uint256",
                    "name": "",
                    "type": "uint256"
                }
            ],
            "stateMutability": "view",
            "type": "function"
        },
        {
            "inputs": [
                {
                    "internalType": "uint256",
                    "name": "price",
                    "type": "uint256"
                }
            ],
            "name": "calculatePlatformFee",
            "outputs": [
                {
                    "internalType": "uint256",
                    "name": "",
                    "type": "uint256"
                }
            ],
            "stateMutability": "pure",
            "type": "function"
        },
        {
            "inputs": [
                {
                    "internalType": "string",
                    "name": "tokenURI",
                    "type": "string"
                },
                {
                    "internalType": "uint256",
                    "name": "priceInUsd",
                    "type": "uint256"
                }
            ],
            "name": "createToken",
            "outputs": [
                {
                    "internalType": "uint256",
                    "name": "",
                    "type": "uint256"
                }
            ],
            "stateMutability": "nonpayable",
            "type": "function"
        },
        {
            "inputs": [
                {
                    "internalType": "uint256",
                    "name": "tokenId",
                    "type": "uint256"
                }
            ],
            "name": "executeSale",
            "outputs": [],
            "stateMutability": "payable",
            "type": "function"
        },
        {
            "inputs": [],
            "name": "getAllNFTs",
            "outputs": [
                {
                    "components": [
                        {
                            "internalType": "uint256",
                            "name": "tokenId",
                            "type": "uint256"
                        },
                        {
                            "internalType": "address payable",
                            "name": "owner",
                            "type": "address"
                        },
                        {
                            "internalType": "address payable",
                            "name": "seller",
                            "type": "address"
                        },
                        {
                            "internalType": "uint256",
                            "name": "priceInWei",
                            "type": "uint256"
                        },
                        {
                            "internalType": "bool",
                            "name": "currentlyListed",
                            "type": "bool"
                        }
                    ],
                    "internalType": "struct NFTMarketplace.ListedToken[]",
                    "name": "",
                    "type": "tuple[]"
                }
            ],
            "stateMutability": "view",
            "type": "function"
        },
        {
            "inputs": [
                {
                    "internalType": "uint256",
                    "name": "tokenId",
                    "type": "uint256"
                }
            ],
            "name": "getApproved",
            "outputs": [
                {
                    "internalType": "address",
                    "name": "",
                    "type": "address"
                }
            ],
            "stateMutability": "view",
            "type": "function"
        },
        {
            "inputs": [],
            "name": "getCurrentToken",
            "outputs": [
                {
                    "internalType": "uint256",
                    "name": "",
                    "type": "uint256"
                }
            ],
            "stateMutability": "view",
            "type": "function"
        },
        {
            "inputs": [],
            "name": "getLatestEthPrice",
            "outputs": [
                {
                    "internalType": "uint256",
                    "name": "",
                    "type": "uint256"
                }
            ],
            "stateMutability": "view",
            "type": "function"
        },
        {
            "inputs": [],
            "name": "getLatestIdToListedToken",
            "outputs": [
                {
                    "components": [
                        {
                            "internalType": "uint256",
                            "name": "tokenId",
                            "type": "uint256"
                        },
                        {
                            "internalType": "address payable",
                            "name": "owner",
                            "type": "address"
                        },
                        {
                            "internalType": "address payable",
                            "name": "seller",
                            "type": "address"
                        },
                        {
                            "internalType": "uint256",
                            "name": "priceInWei",
                            "type": "uint256"
                        },
                        {
                            "internalType": "bool",
                            "name": "currentlyListed",
                            "type": "bool"
                        }
                    ],
                    "internalType": "struct NFTMarketplace.ListedToken",
                    "name": "",
                    "type": "tuple"
                }
            ],
            "stateMutability": "view",
            "type": "function"
        },
        {
            "inputs": [
                {
                    "internalType": "uint256",
                    "name": "tokenId",
                    "type": "uint256"
                }
            ],
            "name": "getListedTokenForId",
            "outputs": [
                {
                    "components": [
                        {
                            "internalType": "uint256",
                            "name": "tokenId",
                            "type": "uint256"
                        },
                        {
                            "internalType": "address payable",
                            "name": "owner",
                            "type": "address"
                        },
                        {
                            "internalType": "address payable",
                            "name": "seller",
                            "type": "address"
                        },
                        {
                            "internalType": "uint256",
                            "name": "priceInWei",
                            "type": "uint256"
                        },
                        {
                            "internalType": "bool",
                            "name": "currentlyListed",
                            "type": "bool"
                        }
                    ],
                    "internalType": "struct NFTMarketplace.ListedToken",
                    "name": "",
                    "type": "tuple"
                }
            ],
            "stateMutability": "view",
            "type": "function"
        },
        {
            "inputs": [],
            "name": "getMyNFTs",
            "outputs": [
                {
                    "components": [
                        {
                            "internalType": "uint256",
                            "name": "tokenId",
                            "type": "uint256"
                        },
                        {
                            "internalType": "address payable",
                            "name": "owner",
                            "type": "address"
                        },
                        {
                            "internalType": "address payable",
                            "name": "seller",
                            "type": "address"
                        },
                        {
                            "internalType": "uint256",
                            "name": "priceInWei",
                            "type": "uint256"
                        },
                        {
                            "internalType": "bool",
                            "name": "currentlyListed",
                            "type": "bool"
                        }
                    ],
                    "internalType": "struct NFTMarketplace.ListedToken[]",
                    "name": "",
                    "type": "tuple[]"
                }
            ],
            "stateMutability": "view",
            "type": "function"
        },
        {
            "inputs": [
                {
                    "internalType": "address",
                    "name": "owner",
                    "type": "address"
                },
                {
                    "internalType": "address",
                    "name": "operator",
                    "type": "address"
                }
            ],
            "name": "isApprovedForAll",
            "outputs": [
                {
                    "internalType": "bool",
                    "name": "",
                    "type": "bool"
                }
            ],
            "stateMutability": "view",
            "type": "function"
        },
        {
            "inputs": [],
            "name": "name",
            "outputs": [
                {
                    "internalType": "string",
                    "name": "",
                    "type": "string"
                }
            ],
            "stateMutability": "view",
            "type": "function"
        },
        {
            "inputs": [],
            "name": "oracleAddress",
            "outputs": [
                {
                    "internalType": "address",
                    "name": "",
                    "type": "address"
                }
            ],
            "stateMutability": "view",
            "type": "function"
        },
        {
            "inputs": [
                {
                    "internalType": "uint256",
                    "name": "tokenId",
                    "type": "uint256"
                }
            ],
            "name": "ownerOf",
            "outputs": [
                {
                    "internalType": "address",
                    "name": "",
                    "type": "address"
                }
            ],
            "stateMutability": "view",
            "type": "function"
        },
        {
            "inputs": [
                {
                    "internalType": "address",
                    "name": "from",
                    "type": "address"
                },
                {
                    "internalType": "address",
                    "name": "to",
                    "type": "address"
                },
                {
                    "internalType": "uint256",
                    "name": "tokenId",
                    "type": "uint256"
                }
            ],
            "name": "safeTransferFrom",
            "outputs": [],
            "stateMutability": "nonpayable",
            "type": "function"
        },
        {
            "inputs": [
                {
                    "internalType": "address",
                    "name": "from",
                    "type": "address"
                },
                {
                    "internalType": "address",
                    "name": "to",
                    "type": "address"
                },
                {
                    "internalType": "uint256",
                    "name": "tokenId",
                    "type": "uint256"
                },
                {
                    "internalType": "bytes",
                    "name": "data",
                    "type": "bytes"
                }
            ],
            "name": "safeTransferFrom",
            "outputs": [],
            "stateMutability": "nonpayable",
            "type": "function"
        },
        {
            "inputs": [
                {
                    "internalType": "address",
                    "name": "operator",
                    "type": "address"
                },
                {
                    "internalType": "bool",
                    "name": "approved",
                    "type": "bool"
                }
            ],
            "name": "setApprovalForAll",
            "outputs": [],
            "stateMutability": "nonpayable",
            "type": "function"
        },
        {
            "inputs": [
                {
                    "internalType": "bytes4",
                    "name": "interfaceId",
                    "type": "bytes4"
                }
            ],
            "name": "supportsInterface",
            "outputs": [
                {
                    "internalType": "bool",
                    "name": "",
                    "type": "bool"
                }
            ],
            "stateMutability": "view",
            "type": "function"
        },
        {
            "inputs": [],
            "name": "symbol",
            "outputs": [
                {
                    "internalType": "string",
                    "name": "",
                    "type": "string"
                }
            ],
            "stateMutability": "view",
            "type": "function"
        },
        {
            "inputs": [
                {
                    "internalType": "uint256",
                    "name": "tokenId",
                    "type": "uint256"
                }
            ],
            "name": "tokenURI",
            "outputs": [
                {
                    "internalType": "string",
                    "name": "",
                    "type": "string"
                }
            ],
            "stateMutability": "view",
            "type": "function"
        },
        {
            "inputs": [
                {
                    "internalType": "address",
                    "name": "from",
                    "type": "address"
                },
                {
                    "internalType": "address",
                    "name": "to",
                    "type": "address"
                },
                {
                    "internalType": "uint256",
                    "name": "tokenId",
                    "type": "uint256"
                }
            ],
            "name": "transferFrom",
            "outputs": [],
            "stateMutability": "nonpayable",
            "type": "function"
        }
    ],
    "bytecode": "608060405234801561000f575f80fd5b506040516140a23803806140a2833981810160405281019061003191906101a2565b6040518060400160405280600e81526020017f4e46544d61726b6574706c6163650000000000000000000000000000000000008152506040518060400160405280600481526020017f4e46544d00000000000000000000000000000000000000000000000000000000815250815f90816100ab9190610407565b5080600190816100bb9190610407565b50505080600a5f6101000a81548173ffffffffffffffffffffffffffffffffffffffff021916908373ffffffffffffffffffffffffffffffffffffffff1602179055503360095f6101000a81548173ffffffffffffffffffffffffffffffffffffffff021916908373ffffffffffffffffffffffffffffffffffffffff160217905550506104d6565b5f80fd5b5f73ffffffffffffffffffffffffffffffffffffffff82169050919050565b5f61017182610148565b9050919050565b61018181610167565b811461018b575f80fd5b50565b5f8151905061019c81610178565b92915050565b5f602082840312156101b7576101b6610144565b5b5f6101c48482850161018e565b91505092915050565b5f81519050919050565b7f4e487b71000000000000000000000000000000000000000000000000000000005f52604160045260245ffd5b7f4e487b71000000000000000000000000000000000000000000000000000000005f52602260045260245ffd5b5f600282049050600182168061024857607f821691505b60208210810361025b5761025a610204565b5b50919050565b5f819050815f5260205f209050919050565b5f6020601f8301049050919050565b5f82821b905092915050565b5f600883026102bd7fffffffffffffffffffffffffffffffffffffffffffffffffffffffffffffffff82610282565b6102c78683610282565b95508019841693508086168417925050509392505050565b5f819050919050565b5f819050919050565b5f61030b610306610301846102df565b6102e8565b6102df565b9050919050565b5f819050919050565b610324836102f1565b61033861033082610312565b84845461028e565b825550505050565b5f90565b61034c610340565b61035781848461031b565b505050565b5b8181101561037a5761036f5f82610344565b60018101905061035d565b5050565b601f8211156103bf5761039081610261565b61039984610273565b810160208510156103a8578190505b6103bc6103b485610273565b83018261035c565b50505b505050565b5f82821c905092915050565b5f6103df5f19846008026103c4565b1980831691505092915050565b5f6103f783836103d0565b9150826002028217905092915050565b610410826101cd565b67ffffffffffffffff811115610429576104286101d7565b5b6104338254610231565b61043e82828561037e565b5f60209050601f83116001811461046f575f841561045d578287015190505b61046785826103ec565b8655506104ce565b601f19841661047d86610261565b5f5b828110156104a45784890151825560018201915060208501945060208101905061047f565b868310156104c157848901516104bd601f8916826103d0565b8355505b6001600288020188555050505b505050505050565b613bbf806104e35f395ff3fe608060405260043610610165575f3560e01c806370a08231116100d0578063a89ae4ba11610089578063d1a88ae511610063578063d1a88ae514610553578063e0391b091461057d578063e985e9c5146105a7578063ef2d1746146105e357610165565b8063a89ae4ba146104c5578063b88d4fde146104ef578063c87b56dd1461051757610165565b806370a08231146103a357806372b3b620146103df5780638e2645901461041b57806395d89b41146104575780639b1225c414610481578063a22cb4651461049d57610165565b80632e0f2625116101225780632e0f26251461029757806330c0b9ec146102c157806334ca75ef146102eb57806342842e0e14610315578063629cb2e41461033d5780636352211e1461036757610165565b806301ffc9a71461016957806306fdde03146101a5578063081812fc146101cf578063095ea7b31461020b5780630cbab4f71461023357806323b872dd1461026f575b5f80fd5b348015610174575f80fd5b5061018f600480360381019061018a9190612994565b61060d565b60405161019c91906129d9565b60405180910390f35b3480156101b0575f80fd5b506101b961066d565b6040516101c69190612a62565b60405180910390f35b3480156101da575f80fd5b506101f560048036038101906101f09190612ab5565b6106fc565b6040516102029190612b1f565b60405180910390f35b348015610216575f80fd5b50610231600480360381019061022c9190612b62565b610717565b005b34801561023e575f80fd5b5061025960048036038101906102549190612ab5565b61072d565b6040516102669190612baf565b60405180910390f35b34801561027a575f80fd5b5061029560048036038101906102909190612bc8565b61074e565b005b3480156102a2575f80fd5b506102ab61084d565b6040516102b89190612baf565b60405180910390f35b3480156102cc575f80fd5b506102d5610852565b6040516102e29190612baf565b60405180910390f35b3480156102f6575f80fd5b506102ff610936565b60405161030c9190612baf565b60405180910390f35b348015610320575f80fd5b5061033b60048036038101906103369190612bc8565b61093b565b005b348015610348575f80fd5b5061035161095a565b60405161035e9190612d64565b60405180910390f35b348015610372575f80fd5b5061038d60048036038101906103889190612ab5565b610d13565b60405161039a9190612b1f565b60405180910390f35b3480156103ae575f80fd5b506103c960048036038101906103c49190612d84565b610d24565b6040516103d69190612baf565b60405180910390f35b3480156103ea575f80fd5b5061040560048036038101906104009190612edb565b610dda565b6040516104129190612baf565b60405180910390f35b348015610426575f80fd5b50610441600480360381019061043c9190612ab5565b610e66565b60405161044e9190612f9b565b60405180910390f35b348015610462575f80fd5b5061046b610f68565b6040516104789190612a62565b60405180910390f35b61049b60048036038101906104969190612ab5565b610ff8565b005b3480156104a8575f80fd5b506104c360048036038101906104be9190612fde565b6111eb565b005b3480156104d0575f80fd5b506104d9611201565b6040516104e69190612b1f565b60405180910390f35b3480156104fa575f80fd5b50610515600480360381019061051091906130ba565b611226565b005b348015610522575f80fd5b5061053d60048036038101906105389190612ab5565b611243565b60405161054a9190612a62565b60405180910390f35b34801561055e575f80fd5b5061056761134e565b6040516105749190612f9b565b60405180910390f35b348015610588575f80fd5b5061059161145c565b60405161059e9190612d64565b60405180910390f35b3480156105b2575f80fd5b506105cd60048036038101906105c8919061313a565b61161a565b6040516105da91906129d9565b60405180910390f35b3480156105ee575f80fd5b506105f76116a8565b6040516106049190612baf565b60405180910390f35b5f634906490660e01b7bffffffffffffffffffffffffffffffffffffffffffffffffffffffff1916827bffffffffffffffffffffffffffffffffffffffffffffffffffffffff191614806106665750610665826116b8565b5b9050919050565b60605f805461067b906131a5565b80601f01602080910402602001604051908101604052809291908181526020018280546106a7906131a5565b80156106f25780601f106106c9576101008083540402835291602001916106f2565b820191905f5260205f20905b8154815290600101906020018083116106d557829003601f168201915b5050505050905090565b5f61070682611799565b506107108261181f565b9050919050565b6107298282610724611858565b61185f565b5050565b5f6064600a8361073d9190613202565b6107479190613270565b9050919050565b5f73ffffffffffffffffffffffffffffffffffffffff168273ffffffffffffffffffffffffffffffffffffffff16036107be575f6040517f64a0ae920000000000000000000000000000000000000000000000000000000081526004016107b59190612b1f565b60405180910390fd5b5f6107d183836107cc611858565b611871565b90508373ffffffffffffffffffffffffffffffffffffffff168173ffffffffffffffffffffffffffffffffffffffff1614610847578382826040517f64283d7b00000000000000000000000000000000000000000000000000000000815260040161083e939291906132a0565b60405180910390fd5b50505050565b601281565b5f80600a5f9054906101000a900473ffffffffffffffffffffffffffffffffffffffff1690505f8173ffffffffffffffffffffffffffffffffffffffff1663feaf968c6040518163ffffffff1660e01b815260040160a060405180830381865afa1580156108c2573d5f803e3d5ffd5b505050506040513d601f19601f820116820180604052508101906108e6919061335b565b5050509150505f811361092e576040517f08c379a000000000000000000000000000000000000000000000000000000000815260040161092590613442565b60405180910390fd5b809250505090565b600881565b61095583838360405180602001604052805f815250611226565b505050565b60605f6109676007611a7c565b90505f805f5b83811015610a7a573373ffffffffffffffffffffffffffffffffffffffff16600b5f60018461099c9190613460565b81526020019081526020015f206001015f9054906101000a900473ffffffffffffffffffffffffffffffffffffffff1673ffffffffffffffffffffffffffffffffffffffff161480610a5857503373ffffffffffffffffffffffffffffffffffffffff16600b5f600184610a109190613460565b81526020019081526020015f206002015f9054906101000a900473ffffffffffffffffffffffffffffffffffffffff1673ffffffffffffffffffffffffffffffffffffffff16145b15610a6d57600183610a6a9190613460565b92505b808060010191505061096d565b505f8267ffffffffffffffff811115610a9657610a95612db7565b5b604051908082528060200260200182016040528015610acf57816020015b610abc6128d6565b815260200190600190039081610ab45790505b5090505f5b84811015610d08573373ffffffffffffffffffffffffffffffffffffffff16600b5f600184610b039190613460565b81526020019081526020015f206001015f9054906101000a900473ffffffffffffffffffffffffffffffffffffffff1673ffffffffffffffffffffffffffffffffffffffff161480610bbf57503373ffffffffffffffffffffffffffffffffffffffff16600b5f600184610b779190613460565b81526020019081526020015f206002015f9054906101000a900473ffffffffffffffffffffffffffffffffffffffff1673ffffffffffffffffffffffffffffffffffffffff16145b15610cfb575f600182610bd29190613460565b90505f600b5f8381526020019081526020015f209050806040518060a00160405290815f8201548152602001600182015f9054906101000a900473ffffffffffffffffffffffffffffffffffffffff1673ffffffffffffffffffffffffffffffffffffffff1673ffffffffffffffffffffffffffffffffffffffff168152602001600282015f9054906101000a900473ffffffffffffffffffffffffffffffffffffffff1673ffffffffffffffffffffffffffffffffffffffff1673ffffffffffffffffffffffffffffffffffffffff16815260200160038201548152602001600482015f9054906101000a900460ff161515151581525050848681518110610cde57610cdd613493565b5b6020026020010181905250600185610cf69190613460565b945050505b8080600101915050610ad4565b508094505050505090565b5f610d1d82611799565b9050919050565b5f8073ffffffffffffffffffffffffffffffffffffffff168273ffffffffffffffffffffffffffffffffffffffff1603610d95575f6040517f89c62b64000000000000000000000000000000000000000000000000000000008152600401610d8c9190612b1f565b60405180910390fd5b60035f8373ffffffffffffffffffffffffffffffffffffffff1673ffffffffffffffffffffffffffffffffffffffff1681526020019081526020015f20549050919050565b5f610de56007611a88565b5f610df06007611a7c565b9050610dfc3382611a9c565b610e068185611ab9565b5f610e0f610852565b90505f816008600a610e2191906135ef565b6012600a610e2f91906135ef565b87610e3a9190613202565b610e449190613202565b610e4e9190613270565b9050610e5a8382611b13565b82935050505092915050565b610e6e6128d6565b600b5f8381526020019081526020015f206040518060a00160405290815f8201548152602001600182015f9054906101000a900473ffffffffffffffffffffffffffffffffffffffff1673ffffffffffffffffffffffffffffffffffffffff1673ffffffffffffffffffffffffffffffffffffffff168152602001600282015f9054906101000a900473ffffffffffffffffffffffffffffffffffffffff1673ffffffffffffffffffffffffffffffffffffffff1673ffffffffffffffffffffffffffffffffffffffff16815260200160038201548152602001600482015f9054906101000a900460ff1615151515815250509050919050565b606060018054610f77906131a5565b80601f0160208091040260200160405190810160405280929190818152602001828054610fa3906131a5565b8015610fee5780601f10610fc557610100808354040283529160200191610fee565b820191905f5260205f20905b815481529060010190602001808311610fd157829003601f168201915b5050505050905090565b5f600b5f8381526020019081526020015f206003015490505f600b5f8481526020019081526020015f206002015f9054906101000a900473ffffffffffffffffffffffffffffffffffffffff1690505f6110518361072d565b9050808361105f9190613460565b34146110a0576040517f08c379a0000000000000000000000000000000000000000000000000000000008152600401611097906136cf565b60405180910390fd5b5f600b5f8681526020019081526020015f206004015f6101000a81548160ff02191690831515021790555033600b5f8681526020019081526020015f206002015f6101000a81548173ffffffffffffffffffffffffffffffffffffffff021916908373ffffffffffffffffffffffffffffffffffffffff1602179055506111276008611a88565b611132303386611cca565b61113c3085610717565b60095f9054906101000a900473ffffffffffffffffffffffffffffffffffffffff1673ffffffffffffffffffffffffffffffffffffffff166108fc8290811502906040515f60405180830381858888f193505050501580156111a0573d5f803e3d5ffd5b508173ffffffffffffffffffffffffffffffffffffffff166108fc8490811502906040515f60405180830381858888f193505050501580156111e4573d5f803e3d5ffd5b5050505050565b6111fd6111f6611858565b8383611e32565b5050565b600a5f9054906101000a900473ffffffffffffffffffffffffffffffffffffffff1681565b61123184848461074e565b61123d84848484611f9b565b50505050565b606061124e82611799565b505f60065f8481526020019081526020015f20805461126c906131a5565b80601f0160208091040260200160405190810160405280929190818152602001828054611298906131a5565b80156112e35780601f106112ba576101008083540402835291602001916112e3565b820191905f5260205f20905b8154815290600101906020018083116112c657829003601f168201915b505050505090505f6112f361214d565b90505f815103611307578192505050611349565b5f8251111561133b578082604051602001611323929190613727565b60405160208183030381529060405292505050611349565b61134484612163565b925050505b919050565b6113566128d6565b5f6113616007611a7c565b9050600b5f8281526020019081526020015f206040518060a00160405290815f8201548152602001600182015f9054906101000a900473ffffffffffffffffffffffffffffffffffffffff1673ffffffffffffffffffffffffffffffffffffffff1673ffffffffffffffffffffffffffffffffffffffff168152602001600282015f9054906101000a900473ffffffffffffffffffffffffffffffffffffffff1673ffffffffffffffffffffffffffffffffffffffff1673ffffffffffffffffffffffffffffffffffffffff16815260200160038201548152602001600482015f9054906101000a900460ff16151515158152505091505090565b60605f6114696007611a7c565b90505f8167ffffffffffffffff81111561148657611485612db7565b5b6040519080825280602002602001820160405280156114bf57816020015b6114ac6128d6565b8152602001906001900390816114a45790505b5090505f805b83811015611610575f6001826114db9190613460565b90505f600b5f8381526020019081526020015f209050806040518060a00160405290815f8201548152602001600182015f9054906101000a900473ffffffffffffffffffffffffffffffffffffffff1673ffffffffffffffffffffffffffffffffffffffff1673ffffffffffffffffffffffffffffffffffffffff168152602001600282015f9054906101000a900473ffffffffffffffffffffffffffffffffffffffff1673ffffffffffffffffffffffffffffffffffffffff1673ffffffffffffffffffffffffffffffffffffffff16815260200160038201548152602001600482015f9054906101000a900460ff1615151515815250508585815181106115e7576115e6613493565b5b60200260200101819052506001846115ff9190613460565b9350505080806001019150506114c5565b5081935050505090565b5f60055f8473ffffffffffffffffffffffffffffffffffffffff1673ffffffffffffffffffffffffffffffffffffffff1681526020019081526020015f205f8373ffffffffffffffffffffffffffffffffffffffff1673ffffffffffffffffffffffffffffffffffffffff1681526020019081526020015f205f9054906101000a900460ff16905092915050565b5f6116b36007611a7c565b905090565b5f7f80ac58cd000000000000000000000000000000000000000000000000000000007bffffffffffffffffffffffffffffffffffffffffffffffffffffffff1916827bffffffffffffffffffffffffffffffffffffffffffffffffffffffff1916148061178257507f5b5e139f000000000000000000000000000000000000000000000000000000007bffffffffffffffffffffffffffffffffffffffffffffffffffffffff1916827bffffffffffffffffffffffffffffffffffffffffffffffffffffffff1916145b806117925750611791826121c9565b5b9050919050565b5f806117a483612232565b90505f73ffffffffffffffffffffffffffffffffffffffff168173ffffffffffffffffffffffffffffffffffffffff160361181657826040517f7e27328900000000000000000000000000000000000000000000000000000000815260040161180d9190612baf565b60405180910390fd5b80915050919050565b5f60045f8381526020019081526020015f205f9054906101000a900473ffffffffffffffffffffffffffffffffffffffff169050919050565b5f33905090565b61186c838383600161226b565b505050565b5f8061187c84612232565b90505f73ffffffffffffffffffffffffffffffffffffffff168373ffffffffffffffffffffffffffffffffffffffff16146118bd576118bc81848661242a565b5b5f73ffffffffffffffffffffffffffffffffffffffff168173ffffffffffffffffffffffffffffffffffffffff1614611948576118fc5f855f8061226b565b600160035f8373ffffffffffffffffffffffffffffffffffffffff1673ffffffffffffffffffffffffffffffffffffffff1681526020019081526020015f205f82825403925050819055505b5f73ffffffffffffffffffffffffffffffffffffffff168573ffffffffffffffffffffffffffffffffffffffff16146119c757600160035f8773ffffffffffffffffffffffffffffffffffffffff1673ffffffffffffffffffffffffffffffffffffffff1681526020019081526020015f205f82825401925050819055505b8460025f8681526020019081526020015f205f6101000a81548173ffffffffffffffffffffffffffffffffffffffff021916908373ffffffffffffffffffffffffffffffffffffffff160217905550838573ffffffffffffffffffffffffffffffffffffffff168273ffffffffffffffffffffffffffffffffffffffff167fddf252ad1be2c89b69c2b068fc378daa952ba7f163c4a11628f55a4df523b3ef60405160405180910390a4809150509392505050565b5f815f01549050919050565b6001815f015f828254019250508190555050565b611ab5828260405180602001604052805f8152506124ed565b5050565b8060065f8481526020019081526020015f209081611ad791906138e7565b507ff8e1a15aba9398e019f0b49df1a4fde98ee17ae345cb5f6b5e2c27f5033e8ce782604051611b079190612baf565b60405180910390a15050565b5f8111611b55576040517f08c379a0000000000000000000000000000000000000000000000000000000008152600401611b4c90613a26565b60405180910390fd5b6040518060a001604052808381526020013073ffffffffffffffffffffffffffffffffffffffff1681526020013373ffffffffffffffffffffffffffffffffffffffff16815260200182815260200160011515815250600b5f8481526020019081526020015f205f820151815f01556020820151816001015f6101000a81548173ffffffffffffffffffffffffffffffffffffffff021916908373ffffffffffffffffffffffffffffffffffffffff1602179055506040820151816002015f6101000a81548173ffffffffffffffffffffffffffffffffffffffff021916908373ffffffffffffffffffffffffffffffffffffffff160217905550606082015181600301556080820151816004015f6101000a81548160ff021916908315150217905550905050611c87333084611cca565b817f9339409317fd01fabff48b703019016f49159bacc801ae872d2ca637d226e4c03033846001604051611cbe9493929190613a44565b60405180910390a25050565b5f73ffffffffffffffffffffffffffffffffffffffff168273ffffffffffffffffffffffffffffffffffffffff1603611d3a575f6040517f64a0ae92000000000000000000000000000000000000000000000000000000008152600401611d319190612b1f565b60405180910390fd5b5f611d4683835f611871565b90505f73ffffffffffffffffffffffffffffffffffffffff168173ffffffffffffffffffffffffffffffffffffffff1603611db857816040517f7e273289000000000000000000000000000000000000000000000000000000008152600401611daf9190612baf565b60405180910390fd5b8373ffffffffffffffffffffffffffffffffffffffff168173ffffffffffffffffffffffffffffffffffffffff1614611e2c578382826040517f64283d7b000000000000000000000000000000000000000000000000000000008152600401611e23939291906132a0565b60405180910390fd5b50505050565b5f73ffffffffffffffffffffffffffffffffffffffff168273ffffffffffffffffffffffffffffffffffffffff1603611ea257816040517f5b08ba18000000000000000000000000000000000000000000000000000000008152600401611e999190612b1f565b60405180910390fd5b8060055f8573ffffffffffffffffffffffffffffffffffffffff1673ffffffffffffffffffffffffffffffffffffffff1681526020019081526020015f205f8473ffffffffffffffffffffffffffffffffffffffff1673ffffffffffffffffffffffffffffffffffffffff1681526020019081526020015f205f6101000a81548160ff0219169083151502179055508173ffffffffffffffffffffffffffffffffffffffff168373ffffffffffffffffffffffffffffffffffffffff167f17307eab39ab6107e8899845ad3d59bd9653f200f220920489ca2b5937696c3183604051611f8e91906129d9565b60405180910390a3505050565b5f8373ffffffffffffffffffffffffffffffffffffffff163b1115612147578273ffffffffffffffffffffffffffffffffffffffff1663150b7a02611fde611858565b8685856040518563ffffffff1660e01b81526004016120009493929190613ad9565b6020604051808303815f875af192505050801561203b57506040513d601f19601f820116820180604052508101906120389190613b37565b60015b6120bc573d805f8114612069576040519150601f19603f3d011682016040523d82523d5f602084013e61206e565b606091505b505f8151036120b457836040517f64a0ae920000000000000000000000000000000000000000000000000000000081526004016120ab9190612b1f565b60405180910390fd5b805181602001fd5b63150b7a0260e01b7bffffffffffffffffffffffffffffffffffffffffffffffffffffffff1916817bffffffffffffffffffffffffffffffffffffffffffffffffffffffff19161461214557836040517f64a0ae9200000000000000000000000000000000000000000000000000000000815260040161213c9190612b1f565b60405180910390fd5b505b50505050565b606060405180602001604052805f815250905090565b606061216e82611799565b505f61217861214d565b90505f8151116121965760405180602001604052805f8152506121c1565b806121a084612508565b6040516020016121b1929190613727565b6040516020818303038152906040525b915050919050565b5f7f01ffc9a7000000000000000000000000000000000000000000000000000000007bffffffffffffffffffffffffffffffffffffffffffffffffffffffff1916827bffffffffffffffffffffffffffffffffffffffffffffffffffffffff1916149050919050565b5f60025f8381526020019081526020015f205f9054906101000a900473ffffffffffffffffffffffffffffffffffffffff169050919050565b80806122a357505f73ffffffffffffffffffffffffffffffffffffffff168273ffffffffffffffffffffffffffffffffffffffff1614155b156123d5575f6122b284611799565b90505f73ffffffffffffffffffffffffffffffffffffffff168373ffffffffffffffffffffffffffffffffffffffff161415801561231c57508273ffffffffffffffffffffffffffffffffffffffff168173ffffffffffffffffffffffffffffffffffffffff1614155b801561232f575061232d818461161a565b155b1561237157826040517fa9fbf51f0000000000000000000000000000000000000000000000000000000081526004016123689190612b1f565b60405180910390fd5b81156123d357838573ffffffffffffffffffffffffffffffffffffffff168273ffffffffffffffffffffffffffffffffffffffff167f8c5be1e5ebec7d5bd14f71427d1e84f3dd0314c0f7b2291e5b200ac8c7c3b92560405160405180910390a45b505b8360045f8581526020019081526020015f205f6101000a81548173ffffffffffffffffffffffffffffffffffffffff021916908373ffffffffffffffffffffffffffffffffffffffff16021790555050505050565b6124358383836125d2565b6124e8575f73ffffffffffffffffffffffffffffffffffffffff168373ffffffffffffffffffffffffffffffffffffffff16036124a957806040517f7e2732890000000000000000000000000000000000000000000000000000000081526004016124a09190612baf565b60405180910390fd5b81816040517f177e802f0000000000000000000000000000000000000000000000000000000081526004016124df929190613b62565b60405180910390fd5b505050565b6124f78383612692565b6125035f848484611f9b565b505050565b60605f600161251684612785565b0190505f8167ffffffffffffffff81111561253457612533612db7565b5b6040519080825280601f01601f1916602001820160405280156125665781602001600182028036833780820191505090505b5090505f82602001820190505b6001156125c7578080600190039150507f3031323334353637383961626364656600000000000000000000000000000000600a86061a8153600a85816125bc576125bb613243565b5b0494505f8503612573575b819350505050919050565b5f8073ffffffffffffffffffffffffffffffffffffffff168373ffffffffffffffffffffffffffffffffffffffff161415801561268957508273ffffffffffffffffffffffffffffffffffffffff168473ffffffffffffffffffffffffffffffffffffffff16148061264a5750612649848461161a565b5b8061268857508273ffffffffffffffffffffffffffffffffffffffff166126708361181f565b73ffffffffffffffffffffffffffffffffffffffff16145b5b90509392505050565b5f73ffffffffffffffffffffffffffffffffffffffff168273ffffffffffffffffffffffffffffffffffffffff1603612702575f6040517f64a0ae920000000000000000000000000000000000000000000000000000000081526004016126f99190612b1f565b60405180910390fd5b5f61270e83835f611871565b90505f73ffffffffffffffffffffffffffffffffffffffff168173ffffffffffffffffffffffffffffffffffffffff1614612780575f6040517f73c6ac6e0000000000000000000000000000000000000000000000000000000081526004016127779190612b1f565b60405180910390fd5b505050565b5f805f90507a184f03e93ff9f4daa797ed6e38ed64bf6a1f01000000000000000083106127e1577a184f03e93ff9f4daa797ed6e38ed64bf6a1f01000000000000000083816127d7576127d6613243565b5b0492506040810190505b6d04ee2d6d415b85acef8100000000831061281e576d04ee2d6d415b85acef8100000000838161281457612813613243565b5b0492506020810190505b662386f26fc10000831061284d57662386f26fc10000838161284357612842613243565b5b0492506010810190505b6305f5e1008310612876576305f5e100838161286c5761286b613243565b5b0492506008810190505b612710831061289b57612710838161289157612890613243565b5b0492506004810190505b606483106128be57606483816128b4576128b3613243565b5b0492506002810190505b600a83106128cd576001810190505b80915050919050565b6040518060a001604052805f81526020015f73ffffffffffffffffffffffffffffffffffffffff1681526020015f73ffffffffffffffffffffffffffffffffffffffff1681526020015f81526020015f151581525090565b5f604051905090565b5f80fd5b5f80fd5b5f7fffffffff0000000000000000000000000000000000000000000000000000000082169050919050565b6129738161293f565b811461297d575f80fd5b50565b5f8135905061298e8161296a565b92915050565b5f602082840312156129a9576129a8612937565b5b5f6129b684828501612980565b91505092915050565b5f8115159050919050565b6129d3816129bf565b82525050565b5f6020820190506129ec5f8301846129ca565b92915050565b5f81519050919050565b5f82825260208201905092915050565b8281835e5f83830152505050565b5f601f19601f8301169050919050565b5f612a34826129f2565b612a3e81856129fc565b9350612a4e818560208601612a0c565b612a5781612a1a565b840191505092915050565b5f6020820190508181035f830152612a7a8184612a2a565b905092915050565b5f819050919050565b612a9481612a82565b8114612a9e575f80fd5b50565b5f81359050612aaf81612a8b565b92915050565b5f60208284031215612aca57612ac9612937565b5b5f612ad784828501612aa1565b91505092915050565b5f73ffffffffffffffffffffffffffffffffffffffff82169050919050565b5f612b0982612ae0565b9050919050565b612b1981612aff565b82525050565b5f602082019050612b325f830184612b10565b92915050565b612b4181612aff565b8114612b4b575f80fd5b50565b5f81359050612b5c81612b38565b92915050565b5f8060408385031215612b7857612b77612937565b5b5f612b8585828601612b4e565b9250506020612b9685828601612aa1565b9150509250929050565b612ba981612a82565b82525050565b5f602082019050612bc25f830184612ba0565b92915050565b5f805f60608486031215612bdf57612bde612937565b5b5f612bec86828701612b4e565b9350506020612bfd86828701612b4e565b9250506040612c0e86828701612aa1565b9150509250925092565b5f81519050919050565b5f82825260208201905092915050565b5f819050602082019050919050565b612c4a81612a82565b82525050565b5f612c5a82612ae0565b9050919050565b612c6a81612c50565b82525050565b612c79816129bf565b82525050565b60a082015f820151612c935f850182612c41565b506020820151612ca66020850182612c61565b506040820151612cb96040850182612c61565b506060820151612ccc6060850182612c41565b506080820151612cdf6080850182612c70565b50505050565b5f612cf08383612c7f565b60a08301905092915050565b5f602082019050919050565b5f612d1282612c18565b612d1c8185612c22565b9350612d2783612c32565b805f5b83811015612d57578151612d3e8882612ce5565b9750612d4983612cfc565b925050600181019050612d2a565b5085935050505092915050565b5f6020820190508181035f830152612d7c8184612d08565b905092915050565b5f60208284031215612d9957612d98612937565b5b5f612da684828501612b4e565b91505092915050565b5f80fd5b5f80fd5b7f4e487b71000000000000000000000000000000000000000000000000000000005f52604160045260245ffd5b612ded82612a1a565b810181811067ffffffffffffffff82111715612e0c57612e0b612db7565b5b80604052505050565b5f612e1e61292e565b9050612e2a8282612de4565b919050565b5f67ffffffffffffffff821115612e4957612e48612db7565b5b612e5282612a1a565b9050602081019050919050565b828183375f83830152505050565b5f612e7f612e7a84612e2f565b612e15565b905082815260208101848484011115612e9b57612e9a612db3565b5b612ea6848285612e5f565b509392505050565b5f82601f830112612ec257612ec1612daf565b5b8135612ed2848260208601612e6d565b91505092915050565b5f8060408385031215612ef157612ef0612937565b5b5f83013567ffffffffffffffff811115612f0e57612f0d61293b565b5b612f1a85828601612eae565b9250506020612f2b85828601612aa1565b9150509250929050565b60a082015f820151612f495f850182612c41565b506020820151612f5c6020850182612c61565b506040820151612f6f6040850182612c61565b506060820151612f826060850182612c41565b506080820151612f956080850182612c70565b50505050565b5f60a082019050612fae5f830184612f35565b92915050565b612fbd816129bf565b8114612fc7575f80fd5b50565b5f81359050612fd881612fb4565b92915050565b5f8060408385031215612ff457612ff3612937565b5b5f61300185828601612b4e565b925050602061301285828601612fca565b9150509250929050565b5f67ffffffffffffffff82111561303657613035612db7565b5b61303f82612a1a565b9050602081019050919050565b5f61305e6130598461301c565b612e15565b90508281526020810184848401111561307a57613079612db3565b5b613085848285612e5f565b509392505050565b5f82601f8301126130a1576130a0612daf565b5b81356130b184826020860161304c565b91505092915050565b5f805f80608085870312156130d2576130d1612937565b5b5f6130df87828801612b4e565b94505060206130f087828801612b4e565b935050604061310187828801612aa1565b925050606085013567ffffffffffffffff8111156131225761312161293b565b5b61312e8782880161308d565b91505092959194509250565b5f80604083850312156131505761314f612937565b5b5f61315d85828601612b4e565b925050602061316e85828601612b4e565b9150509250929050565b7f4e487b71000000000000000000000000000000000000000000000000000000005f52602260045260245ffd5b5f60028204905060018216806131bc57607f821691505b6020821081036131cf576131ce613178565b5b50919050565b7f4e487b71000000000000000000000000000000000000000000000000000000005f52601160045260245ffd5b5f61320c82612a82565b915061321783612a82565b925082820261322581612a82565b9150828204841483151761323c5761323b6131d5565b5b5092915050565b7f4e487b71000000000000000000000000000000000000000000000000000000005f52601260045260245ffd5b5f61327a82612a82565b915061328583612a82565b92508261329557613294613243565b5b828204905092915050565b5f6060820190506132b35f830186612b10565b6132c06020830185612ba0565b6132cd6040830184612b10565b949350505050565b5f69ffffffffffffffffffff82169050919050565b6132f3816132d5565b81146132fd575f80fd5b50565b5f8151905061330e816132ea565b92915050565b5f819050919050565b61332681613314565b8114613330575f80fd5b50565b5f815190506133418161331d565b92915050565b5f8151905061335581612a8b565b92915050565b5f805f805f60a0868803121561337457613373612937565b5b5f61338188828901613300565b955050602061339288828901613333565b94505060406133a388828901613347565b93505060606133b488828901613347565b92505060806133c588828901613300565b9150509295509295909350565b7f496e76616c696420436861696e6c696e6b2070726963652066656564206461745f8201527f6100000000000000000000000000000000000000000000000000000000000000602082015250565b5f61342c6021836129fc565b9150613437826133d2565b604082019050919050565b5f6020820190508181035f83015261345981613420565b9050919050565b5f61346a82612a82565b915061347583612a82565b925082820190508082111561348d5761348c6131d5565b5b92915050565b7f4e487b71000000000000000000000000000000000000000000000000000000005f52603260045260245ffd5b5f8160011c9050919050565b5f808291508390505b6001851115613515578086048111156134f1576134f06131d5565b5b60018516156135005780820291505b808102905061350e856134c0565b94506134d5565b94509492505050565b5f8261352d57600190506135e8565b8161353a575f90506135e8565b8160018114613550576002811461355a57613589565b60019150506135e8565b60ff84111561356c5761356b6131d5565b5b8360020a915084821115613583576135826131d5565b5b506135e8565b5060208310610133831016604e8410600b84101617156135be5782820a9050838111156135b9576135b86131d5565b5b6135e8565b6135cb84848460016134cc565b925090508184048111156135e2576135e16131d5565b5b81810290505b9392505050565b5f6135f982612a82565b915061360483612a82565b92506136317fffffffffffffffffffffffffffffffffffffffffffffffffffffffffffffffff848461351e565b905092915050565b7f5468652070726f766964656420616d6f756e7420646f65736e2774206d6174635f8201527f68207468652061736b696e6720707269636520706c757320706c6174666f726d60208201527f206665652e000000000000000000000000000000000000000000000000000000604082015250565b5f6136b96045836129fc565b91506136c482613639565b606082019050919050565b5f6020820190508181035f8301526136e6816136ad565b9050919050565b5f81905092915050565b5f613701826129f2565b61370b81856136ed565b935061371b818560208601612a0c565b80840191505092915050565b5f61373282856136f7565b915061373e82846136f7565b91508190509392505050565b5f819050815f5260205f209050919050565b5f6020601f8301049050919050565b5f82821b905092915050565b5f600883026137a67fffffffffffffffffffffffffffffffffffffffffffffffffffffffffffffffff8261376b565b6137b0868361376b565b95508019841693508086168417925050509392505050565b5f819050919050565b5f6137eb6137e66137e184612a82565b6137c8565b612a82565b9050919050565b5f819050919050565b613804836137d1565b613818613810826137f2565b848454613777565b825550505050565b5f90565b61382c613820565b6138378184846137fb565b505050565b5b8181101561385a5761384f5f82613824565b60018101905061383d565b5050565b601f82111561389f576138708161374a565b6138798461375c565b81016020851015613888578190505b61389c6138948561375c565b83018261383c565b50505b505050565b5f82821c905092915050565b5f6138bf5f19846008026138a4565b1980831691505092915050565b5f6138d783836138b0565b9150826002028217905092915050565b6138f0826129f2565b67ffffffffffffffff81111561390957613908612db7565b5b61391382546131a5565b61391e82828561385e565b5f60209050601f83116001811461394f575f841561393d578287015190505b61394785826138cc565b8655506139ae565b601f19841661395d8661374a565b5f5b828110156139845784890151825560018201915060208501945060208101905061395f565b868310156139a1578489015161399d601f8916826138b0565b8355505b6001600288020188555050505b505050505050565b7f4d616b652073757265207468652070726963652069736e2774206e65676174695f8201527f7665000000000000000000000000000000000000000000000000000000000000602082015250565b5f613a106022836129fc565b9150613a1b826139b6565b604082019050919050565b5f6020820190508181035f830152613a3d81613a04565b9050919050565b5f608082019050613a575f830187612b10565b613a646020830186612b10565b613a716040830185612ba0565b613a7e60608301846129ca565b95945050505050565b5f81519050919050565b5f82825260208201905092915050565b5f613aab82613a87565b613ab58185613a91565b9350613ac5818560208601612a0c565b613ace81612a1a565b840191505092915050565b5f608082019050613aec5f830187612b10565b613af96020830186612b10565b613b066040830185612ba0565b8181036060830152613b188184613aa1565b905095945050505050565b5f81519050613b318161296a565b92915050565b5f60208284031215613b4c57613b4b612937565b5b5f613b5984828501613b23565b91505092915050565b5f604082019050613b755f830185612b10565b613b826020830184612ba0565b939250505056fea26469706673582212204600a4ac5ce36bad71c6f454f83c5ce6afd79dffa6133acb2285788a6721561964736f6c63430008190033",
    "linkReferences": {},
    "deployedLinkReferences": {}
}